:100000000C9463000C948B000C948B000C948B006C
:100010000C948B000C948B000C948B000C94570662
:100020000C948B000C948B000C948B000C948B0024
:100030000C948B000C948B000C948B000C948B0014
:100040000C940B070C948B000C94D9060C94B306FB
:100050000C948B000C948B000C948B000C948B00F4
:100060000C948B000C948B000000000024002700EF
:100070002A0000000000250028002B0000000008D6
:10008000000201000003040700000000000000005F
:1000900002000000002300260029000404040404D8
:1000A0000404040202020202020303030303030125
:1000B00002040810204080010204081020010204FC
:1000C00008102000550711241FBECFEFD8E0DEBF77
:1000D000CDBF13E0A0E0B1E0E4ECFBE102C005908D
:1000E0000D92A434B107D9F724E0A4E4B3E001C031
:1000F0001D92A131B207E1F710E0C3E6D0E004C0E1
:100100002197FE010E94DA0DC236D107C9F70E947D
:10011000A2070C94E00D0C940000CF92DF92EF92B6
:10012000FF92CF93DF93B0910504A0E08111AB2F34
:100130008091060490E0880F991FAC014F565F4FE5
:10014000C0900B04D0900C04E0900D04F0900E04CD
:1001500030E020E0FA01C591D491E881B90190E046
:1001600080E0EB23EA130AC02F5F3F4F6C157D053B
:100170008E059F0578F36FEF7FEFCB01DF91CF9175
:10018000FF90EF90DF90CF900895AF92BF92CF9203
:10019000DF92EF92FF920F931F93CF93DF936C0147
:1001A0007B018B01040F151FEB015E01AE18BF0828
:1001B000C017D10759F06991D601ED91FC910190DA
:1001C000F081E02DC6010995892B79F7C501DF91F2
:1001D000CF911F910F91FF90EF90DF90CF90BF9044
:1001E000AF900895FC01538D448D252F30E0842F6E
:1001F00090E0821B930B541710F0CF96089501974F
:100200000895FC01918D828D981761F0A28DAE0F3B
:10021000BF2FB11D5D968C91928D9F5F9F73928FC2
:1002200090E008958FEF9FEF0895FC01918D828DEE
:10023000981731F0828DE80FF11D858D90E00895BB
:100240008FEF9FEF0895FC01918D228D892F90E013
:10025000805C9F4F821B91098F739927089581E6D7
:1002600093E00E94230121E0892B09F420E0822FF2
:10027000089580E090E0892B29F00E942F018111E0
:100280000C9400000895FC01A48DA80FB92FB11D96
:10029000A35ABF4F2C91848D90E001968F739927BC
:1002A000848FA689B7892C93A089B1898C9183709A
:1002B00080648C93938D848D981306C00288F38993
:1002C000E02D80818F7D80830895EF92FF920F93C0
:1002D0001F93CF93DF93EC0181E0888F9B8D8C8DF2
:1002E00098131AC0E889F989808185FF15C09FB7E6
:1002F000F894EE89FF896083E889F98980818370A9
:10030000806480839FBF81E090E0DF91CF911F9157
:100310000F91FF90EF900895F62E0B8D10E00F5F78
:100320001F4F0F731127E02E8C8D8E110CC00FB64E
:1003300007FCFACFE889F989808185FFF5CFCE01E6
:100340000E944301F1CFEB8DEC0FFD2FF11DE35A1D
:10035000FF4FF0829FB7F8940B8FEA89FB89808169
:100360008062CFCFCF93DF93EC01888D8823B9F0E3
:10037000AA89BB89E889F9898C9185FD03C08081B0
:1003800086FD0DC00FB607FCF7CF8C9185FFF2CF2D
:10039000808185FFEDCFCE010E944301E9CFDF913F
:1003A000CF910895833081F028F4813099F0823024
:1003B000A9F008958730A9F08830C9F08430B1F4ED
:1003C000809180008F7D03C0809180008F77809323
:1003D0008000089584B58F7784BD089584B58F7D9E
:1003E000FBCF8091B0008F778093B000089580910B
:1003F000B0008F7DF9CFCF93DF93282F30E0F90144
:10040000E458FF4F8491F901E155FF4FD491F90170
:10041000E556FF4FC491CC23A1F081110E94D20177
:10042000EC2FF0E0EE0FFF1FEF56FF4FA591B491B8
:10043000EC91ED2381E090E009F480E0DF91CF9131
:10044000089580E090E0FACF1F93CF93DF93282F99
:1004500030E0F901E458FF4F8491F901E155FF4F75
:10046000D491F901E556FF4FC491CC23A9F0162F82
:1004700081110E94D201EC2FF0E0EE0FFF1FEE5829
:10048000FF4FA591B4918FB7F894EC91111108C06A
:10049000D095DE23DC938FBFDF91CF911F9108951C
:1004A000DE2BF8CF9091000189130BC0E0E9F0E05A
:1004B000E4919FEF90930001E13049F028F0E230A1
:1004C00061F060E00C94240210926E00FACF9091DB
:1004D0006F009D7F90936F00F4CF909170009D7F8F
:1004E0009093700091E09093B0009091B100987F4C
:1004F00094609093B1001092B300E3CFCF93DF9359
:1005000090E0FC01E155FF4F249185569F4FFC017F
:1005100084918823C9F090E0880F991FFC01E85965
:10052000FF4FA591B491FC01EE58FF4FC591D491B6
:1005300061110DC09FB7F8948C91209582238C9304
:100540008881282328839FBFDF91CF91089562304F
:1005500051F49FB7F8943C91822F809583238C931C
:10056000E8812E2BEFCF8FB7F894EC912E2B2C93A4
:100570008FBFEACF8E50806480937C0080917A0098
:10058000806480937A0080917A0086FDFCCF809110
:1005900078009091790008953FB7F89480914F03C7
:1005A00090915003A0915103B091520326B5A89B9E
:1005B00005C02F3F19F00196A11DB11D3FBFBA2FF5
:1005C000A92F982F8827BC01CD01620F711D811DB5
:1005D000911D42E0660F771F881F991F4A95D1F73A
:1005E00008958F929F92AF92BF92CF92DF92EF9237
:1005F000FF926B017C010E94CC024B015C01C11493
:10060000D104E104F104B9F00E94CC02681979091F
:100610008A099B09683E73408105910580F321E0BA
:10062000C21AD108E108F10888EE880E83E0981E0E
:10063000A11CB11CE4CFFF90EF90DF90CF90BF9052
:10064000AF909F908F900895CF92DF92EF92FF929C
:100650000F931F93CF93DF93CDB7DEB7C054D14034
:100660000FB6F894DEBF0FBECDBF2FB7F8948091C0
:100670005D0390915E03A0915F03B09160032FBF73
:1006800040910704509108046091090470910A0494
:100690008C019D01041B150B260B370BB901A8011A
:1006A000403D57406105710590F480910F04C05C96
:1006B000DE4F0FB6F894DEBF0FBECDBFDF91CF91F6
:1006C0001F910F91FF90EF90DF90CF90089580934E
:1006D000070490930804A0930904B0930A041092AD
:1006E000020410920104109200041092FF03109271
:1006F000FE0362E0809103040E947E0261E070E0EC
:1007000080E090E00E94F10261E0809103040E9489
:100710007E0260E0809103040E9424028091040420
:100720008551823020F58BE291E10197F1F762E08B
:10073000809103040E947E028091100490E0823038
:10074000910538F0880F991F880F991F0597019719
:10075000F1F7F89480E00E948D006F3F7F4F8F4F3C
:100760009F4F61F410920F04789480E0A0CF64E171
:1007700070E080E090E00E94F102D9CF81E00E9419
:100780008D006F3F7F4F8F4F9F4F61F38E010F5F43
:100790001F4F6E018FEBC81A8EEFD80A780180E0E8
:1007A0000E948D00F701608371838283938381E0CF
:1007B0000E948D00F7016483758386839783F8E038
:1007C000EF0EF11CEC14FD0451F7789430E020E0BA
:1007D000F801C080D180E280F38044815581668138
:1007E0007781FFEFCF16DF06EF06FF0631F04F3FB0
:1007F0008FEF58076807780719F410920F04B5CFE8
:10080000F90183E0F595E7958A95E1F7E250FC4F11
:100810008081880FC416D506E606F70610F180839E
:100820002F5F3F4F085F1F4F2832310589F64091F7
:1008300002042091FE038091FF03280F3327331F0A
:1008400080910004280F311D80910104820F932FA5
:10085000911D99274817190681F681E080930F04AE
:1008600026CF8160DCCFCF9380910001863061F08C
:100870008F3F99F168EE73E080E090E00E94F10212
:1008800086E0CF910C945202E0E9F0E0C491C7FDFC
:10089000F1CF61E086E00E947E02CC2309F48CC097
:1008A000C23009F0A0C08091B100887F836080933E
:1008B000B10089EF8093B3008FEF9FEFDC0180934D
:1008C000560390935703A0935803B0935903809114
:1008D0007000826080937000CDCF86E0809300012D
:1008E000E0E9F0E0C491CF3F09F4C4CFC13021F179
:1008F00050F0C23009F43EC0C7FDBCCF61E086E0D5
:100900000E947E02CDCF14BC15BC84B5826084BD2C
:1009100085B5816085BDE1EAF0E0E491F0E0EE0F9D
:10092000FF1FEE58FF4F85919491E5EBF0E0E491C5
:10093000E0934503C0E0ADCF10928000109281009B
:100940008091810088608093810080918100816026
:1009500080938100E1EAF0E0E491F0E0EE0FFF1F08
:10096000EE58FF4F85919491E5EBF0E0E491E09330
:1009700044038FCF1092B0001092B1008091B0006C
:1009800082608093B0008091B10081608093B1005B
:10099000E1EAF0E0E491F0E0EE0FFF1FEE58FF4FC8
:1009A000859194919093540380935303E5EBF0E089
:1009B000E491E09355036DCF85B5887F836085BD55
:1009C0008CE787BD8FEF9FEFDC0180934A03909304
:1009D0004B03A0934C03B0934D0380916E00826053
:1009E00080936E0047CFC130E9F480918100887F09
:1009F0008160809381008FE39FE1909389008093D1
:100A000088008FEF9FEFDC018093460390934703AC
:100A1000A0934803B093490380916F008260809354
:100A20006F0028CFC23021F0C11124CF8FE3C9CF8E
:100A30008FE340CFFC0101900020E9F73197AF012F
:100A4000481B590BBC0181E693E00C94C5008F92C2
:100A50009F92AF92BF920F931F93CF93DF93CDB727
:100A6000DEB7A1970FB6F894DEBF0FBECDBF19A2B7
:100A7000423008F44AE08E010F5D1F4F842E912C06
:100A8000B12CA12CA50194010E94A40DE62FB9015F
:100A9000CA01EA30F4F4E05DD801EE938D01232B16
:100AA000242B252B79F790E080E0109719F0CD01E9
:100AB0000E941A05A1960FB6F894DEBF0FBECDBFF7
:100AC000DF91CF911F910F91BF90AF909F908F902A
:100AD0000895E95CE1CFCF93DF930E941A05EC0102
:100AE0008DE191E00E941A058C0F9D1FDF91CF913F
:100AF00008950C941A054F925F926F927F928F9295
:100B00009F92AF92BF92CF92DF92EF92FF920F939C
:100B10001F93CF936B017C01742EAC019B010E944B
:100B20008B0D882399F080E291E0CF911F910F9176
:100B3000FF90EF90DF90CF90BF90AF909F908F90FD
:100B40007F906F905F904F900C941A05460157016B
:100B5000E894B7F82FEF3FEF4FE75FE7C501B40127
:100B60000E948B0D81110DC02FEF3FEF4FE75FE724
:100B7000C501B4010E94C10B18161CF484E291E077
:100B8000D4CF2FEF3FEF4FE75FE4C701B6010E94DC
:100B9000190D18161CF488E291E0C7CF2FEF3FEF34
:100BA0004FE75FECC701B6010E94C10B87FDF3CF91
:100BB00020E030E0A901C701B6010E94C10B10E09E
:100BC00000E087FF0AC06DE281E693E00E946501C4
:100BD0008C01F7FAF094F7F8F094C0E060E070E070
:100BE00080E09FE37C1641F020E030E040E251E4F9
:100BF0000E94C60BCF5FF6CFA70196010E94550B4E
:100C00002B013C010E94380C4B015C014AE00E9420
:100C100027057C01E00EF11ECC23C1F1C501B40112
:100C20000E94670C9B01AC01C301B2010E94540BEE
:100C30004B015C016EE281E693E00E946501E80EE3
:100C4000F91EC15018F120E030E040E251E4C50146
:100C5000B4010E941E0D2B013C010E94380C4B0177
:100C6000B12CA12C4AE0C501B4010E942705E80E71
:100C7000F91EC501B4010E94670C9B01AC01C301C0
:100C8000B2010E94540B4B015C01DBCFC701CF9135
:100C90001F910F91FF90EF90DF90CF90BF90AF909A
:100CA0009F908F907F906F905F904F9008951F92CC
:100CB0000F920FB60F9211242F933F934F935F9390
:100CC0006F937F938F939F93AF93BF93EF93FF9314
:100CD0008091560390915703A0915803B091590306
:100CE000892B8A2B8B2BD1F190915503E0915303E3
:100CF000F0915403808189278083809156039091DD
:100D00005703A0915803B0915903181619061A06F3
:100D10001B069CF48091560390915703A0915803B1
:100D2000B09159030197A109B1098093560390939B
:100D30005703A0935803B0935903FF91EF91BF91CC
:100D4000AF919F918F917F916F915F914F913F9163
:100D50002F910F900FBE0F901F901895809100015A
:100D60000E945202EACF1F920F920FB60F921124E7
:100D70002F933F934F935F936F937F938F939F93A3
:100D8000AF93BF93EF93FF9381E693E00E944301FB
:100D9000FF91EF91BF91AF919F918F917F916F9153
:100DA0005F914F913F912F910F900FBE0F901F9029
:100DB00018951F920F920FB60F9211242F938F93B5
:100DC0009F93EF93FF93E0917103F0917203808101
:100DD000E0917703F091780382FD1BC090818091B0
:100DE0007A038F5F8F7320917B03821741F0E0912C
:100DF0007A03F0E0EF59FC4F958F80937A03FF91CF
:100E0000EF919F918F912F910F900FBE0F901F9098
:100E100018958081F4CF1F920F920FB60F92112474
:100E20002F933F938F939F93AF93BF9380915D03D5
:100E300090915E03A0915F03B091600330914E03E7
:100E400023E0230F2D3758F50196A11DB11D2093E6
:100E50004E0380935D0390935E03A0935F03B09372
:100E6000600380914F0390915003A0915103B09182
:100E700052030196A11DB11D80934F03909350031F
:100E8000A0935103B0935203BF91AF919F918F9163
:100E90003F912F910F900FBE0F901F90189526E84D
:100EA000230F0296A11DB11DD2CFE1E6F3E013821C
:100EB000128288EE93E0A0E0B0E084839583A6835D
:100EC000B7838FE091E09183808385EC90E09587F4
:100ED000848784EC90E09787868780EC90E0918B04
:100EE000808B81EC90E0938B828B82EC90E0958BF1
:100EF000848B86EC90E0978B868B118E128E138EEE
:100F0000148EAEEFB3E082E015968C9315978BE0CC
:100F100016968C931697E1EBF0E0E4911796EC931C
:100F20001797EDE9F0E0E4911896EC93189740E8F4
:100F30005EE360E070E01D964D935D936D937C934E
:100F400050970895789484B5826084BD84B581609B
:100F500084BD85B5826085BD85B5816085BD809184
:100F60006E00816080936E001092810080918100FC
:100F700082608093810080918100816080938100F4
:100F8000809180008160809380008091B1008460B6
:100F90008093B1008091B00081608093B000809117
:100FA0007A00846080937A0080917A0082608093D6
:100FB0007A0080917A00816080937A0080917A0033
:100FC000806880937A001092C10061E083E00E9403
:100FD0007E0261E084E00E947E0261E085E00E9482
:100FE0007E0260E086E00E947E0260E083E10E9473
:100FF0007E0260E082E10E947E0260E081E10E9468
:101000007E02E0917103F091720382E08083E091AF
:101010006D03F0916E031082E0916F03F091700305
:101020008FEC808310927903E0917503F091760341
:1010300086E08083E0917303F09174038081806186
:101040008083E0917303F0917403808188608083D2
:10105000E0917303F0917403808180688083E09154
:101060007303F091740380818F7D808362E08091AF
:1010700003040E947E022FB7F89480915D03909143
:101080005E03A0915F03B09160032FBF805D974026
:10109000A109B1098093070490930804A09309045F
:1010A000B0930A0487E3809310043CE2232E332498
:1010B000339408E210E060ED77E080E090E00E9479
:1010C000F1020E942403882349F0809104048B30AC
:1010D00028F08D3050F085518230C0F1812C912C58
:1010E00020ECA22E2FE7B22E1EC06091FF0370E00D
:1010F00090E080E00E94690C2DEC3CEC4CEC5DE350
:101100000E941E0D6B017C016091FE0370E090E077
:1011100080E00E94690C9B01AC01C701B6010E94EE
:10112000550B4B015C010E942403882341F0809100
:1011300004048C3009F47EC0D8F48B3091F1C12CBA
:10114000D12C80ECE82E8FE7F82E55C06091FE037D
:101150007091FF0376276727762790E080E00E9452
:10116000670C2DEC3CEC4CEC5DE30E941E0DD9CFDE
:101170008551823020F7C09100046C2F70E0762FEB
:10118000662766277F7780910104682B90E080E0D6
:101190000E94670C2DEC3CEC4CEC5DE30E941E0DB4
:1011A00065C06091000470E090E080E00E94670CF0
:1011B0006B017C01C0910104C7FF0AC0AC019B0117
:1011C00060E070E080E89FEB0E94540B6B017C01B3
:1011D000CF706C2F70E090E080E00E94690C2DECE5
:1011E0003CEC4CEC5DE30E941E0DA70196010E94B1
:1011F000550B6B017C018EE00E94BA02EC01A70145
:101200009601C701B6010E948B0D8823C1F18CE2C3
:1012100091E00E946B050E94330480E090E0892BEE
:1012200009F449CF0E942F01882309F444CF0E947A
:10123000000041CFC09100046C2F70E090E080E08E
:101240000E94670C6B017C01609101046F7070E07B
:1012500090E080E00E94690C2DEC3CEC4CEC5DE3EE
:101260000E941E0DA70196010E94550B6B017C0187
:10127000C7FFC1CFF7FAF094F7F8F094BCCF2097EE
:1012800019F48BE491E0C5CF209103013091040162
:101290004091050150910601C501B4010E94C10BA6
:1012A000811110925B032091070130910801409158
:1012B000090150910A01C701B6010E94C10B8111B9
:1012C00010925A038091010190910201C817D90729
:1012D00011F010925C03C0920701D0920801E092D5
:1012E0000901F0920A018092030190920401A092F8
:1012F0000501B0920601D0930201C09301018AE674
:1013000091E00E94790580E891E00E9479052E0124
:101310000D2E000C660877084AE0C301B20177FE83
:101320000DC06DE281E693E00E9465016627772794
:10133000CB0164197509860997094AE00E942705BF
:1013400089E991E00E9479058CE891E00E94790595
:1013500042E0C501B4010E947B0587E991E00E944B
:1013600079058BE991E00E94790542E0C701B60159
:101370000E947B0589EA91E00E9479058DE191E068
:101380000E941A0520E030E040EB51E4C701B601AD
:101390000E94190D18160CF0C6C080915A038111D5
:1013A000D1C020E030E040EB51E4C701B6010E941B
:1013B000C10B18160CF08AC020E030E044E951E47B
:1013C000C701B6010E94540B20E030E040EC5FE31F
:1013D0000E941E0D6B017C0161E083E00E942402EB
:1013E00083E10E94BA02BC01990F880B990B0E94FD
:1013F000690C20E030E048EC52E40E94C10B87FF0A
:1014000069C083E00E94FB01019709F063C08DEA87
:1014100091E00E946B050E94330420E030E040E23E
:1014200052E4C501B4010E94190D87FF05C08091E7
:101430005B03882309F48FC060E084E00E942402EB
:101440008EE192E00E946B05CA3FD1050CF023C1EA
:1014500080915C0381111FC1C1018C1B9D0BB801E0
:101460000E94900D2AE0269FC001279F900D112415
:10147000BC01990F880B990B0E94690C6B017C01D0
:1014800061E085E00E94240281E10E94BA02BC0171
:10149000990F880B990B0E94690C20E030E048EC12
:1014A00052E40E94C10B87FFCDC085E00E94FB0182
:1014B000019709F0C7C089E892E00E946B050E947D
:1014C00033048EEE92E00E946B05A7CEC12CD12C86
:1014D000760182CF8BEC91E00E94790542E0C70152
:1014E000B6010E947B0587ED91E00E946B0520E02C
:1014F00030E04AE754E4C701B6010E941E0D0E9485
:10150000380C0E94F10260E083E00E94240281EE28
:1015100091E00E94790589EF91E00E946B0581E0DE
:1015200080935A037ACF20E030E040EB51E4C701CA
:10153000B6010E94C10B18162CF480915A0388231F
:1015400009F46BCF60E083E00E94240284E192E022
:101550000E946B0562CF20E030E040E252E4C5011A
:10156000B4010E94C10B87FF6FCF20E030E040E75D
:1015700052E4C501B4010E94190DC12CD12C760191
:1015800087FF16C0A501940160E070E088E492E452
:101590000E94540B20E030E040E450E40E94C60B6F
:1015A00020E030E040E05FE30E941E0D6B017C0113
:1015B00061E084E00E94240282E10E94BA02BC0140
:1015C000990F880B990B0E94690C20E030E040EFE6
:1015D00051E40E94C10B87FF0CC084E00E94FB0114
:1015E000019739F48AE292E00E946B050E9433046D
:1015F0002BCF8AE492E00E94790542E0C701B60150
:101600000E947B0587ED91E00E946B0520E030E0B1
:101610004AE754E4C701B6010E941E0D0E94380C2F
:101620000E94F10260E084E00E94240288E592E0DA
:101630000E94790583E792E00E946B0581E0809328
:101640005B0302CF89EA92E00E94790542E0C7017C
:10165000B6010E947B0587ED91E00E94790520E0AC
:1016600030E04AE754E4C701B6010E941E0D0E9413
:10167000380C0E94F10260E085E00E94240287EBB2
:1016800092E00E94790582ED92E00E946B0581E074
:1016900080935C0316CF60E085E00E94240283EE15
:1016A00092E00E946B050DCF5058BB27AA270E94DD
:1016B0006C0B0C94DF0C0E94D10C38F00E94D80CFB
:1016C00020F039F49F3F19F426F40C94CE0C0EF45C
:1016D000E095E7FB0C94C80CE92F0E94F00C58F33E
:1016E000BA17620773078407950720F079F4A6F507
:1016F0000C94120D0EF4E0950B2EBA2FA02D0B01B9
:10170000B90190010C01CA01A0011124FF27591B46
:1017100099F0593F50F4503E68F11A16F040A22F4C
:10172000232F342F4427585FF3CF469537952795BD
:10173000A795F0405395C9F77EF41F16BA0B620BBC
:10174000730B840BBAF09150A1F0FF0FBB1F661F03
:10175000771F881FC2F70EC0BA0F621F731F841F46
:1017600048F4879577956795B795F7959E3F08F06C
:10177000B0CF9395880F08F09927EE0F979587952E
:1017800008950E94A40C08F481E008950E94DA0BE9
:101790000C94DF0C0E94D80C58F00E94D10C40F041
:1017A00029F45F3F29F00C94C80C51110C94130DCF
:1017B0000C94CE0C0E94F00C68F39923B1F35523DE
:1017C00091F3951B550BBB27AA2762177307840754
:1017D00038F09F5F5F4F220F331F441FAA1FA9F3EA
:1017E00035D00E2E3AF0E0E832D091505040E695D8
:1017F000001CCAF72BD0FE2F29D0660F771F881F39
:10180000BB1F261737074807AB07B0E809F0BB0B2B
:10181000802DBF01FF2793585F4F3AF09E3F51053F
:1018200078F00C94C80C0C94130D5F3FE4F3983ED1
:10183000D4F3869577956795B795F7959F5FC9F728
:10184000880F911D9695879597F90895E1E0660FA9
:10185000771F881FBB1F621773078407BA0720F022
:10186000621B730B840BBA0BEE1F88F7E09508958B
:101870000E94F80C88F09F5798F0B92F9927B7511C
:10188000B0F0E1F0660F771F881F991F1AF0BA9524
:10189000C9F714C0B13091F00E94120DB1E0089563
:1018A0000C94120D672F782F8827B85F39F0B93F55
:1018B000CCF3869577956795B395D9F73EF49095D7
:1018C0008095709561957F4F8F4F9F4F0895E89455
:1018D00009C097FB3EF490958095709561957F4F78
:1018E0008F4F9F4F9923A9F0F92F96E9BB27939526
:1018F000F695879577956795B795F111F8CFFAF436
:10190000BB0F11F460FF1BC06F5F7F4F8F4F9F4F66
:1019100016C0882311F096E911C0772321F09EE8C4
:10192000872F762F05C0662371F096E8862F70E02A
:1019300060E02AF09A95660F771F881FDAF7880F04
:101940009695879597F90895990F0008550FAA0B5A
:10195000E0E8FEEF16161706E807F907C0F01216C2
:101960001306E407F50798F0621B730B840B950BC5
:1019700039F40A2661F0232B242B252B21F408951A
:101980000A2609F4A140A6958FEF811D811D0895B7
:1019900097F99F6780E870E060E008959FEF80EC22
:1019A000089500240A9416161706180609060895C5
:1019B00000240A9412161306140605060895092E2B
:1019C0000394000C11F4882352F0BB0F40F4BF2B9A
:1019D00011F460FF04C06F5F7F4F8F4F9F4F0895DA
:1019E00057FD9058440F551F59F05F3F71F04795D0
:1019F000880F97FB991F61F09F3F79F087950895B5
:101A0000121613061406551FF2CF4695F1DF08C0D3
:101A1000161617061806991FF1CF869571056105F0
:101A200008940895E894BB2766277727CB0197F998
:101A300008950E94A40C08F48FEF08950E94310DC0
:101A40000C94DF0C0E94D10C38F00E94D80C20F0CE
:101A5000952311F00C94C80C0C94CE0C11240C940A
:101A6000130D0E94F00C70F3959FC1F3950F50E099
:101A7000551F629FF001729FBB27F00DB11D639F40
:101A8000AA27F00DB11DAA1F649F6627B00DA11DE6
:101A9000661F829F2227B00DA11D621F739FB00D8C
:101AA000A11D621F839FA00D611D221F749F3327FC
:101AB000A00D611D231F849F600D211D822F762F95
:101AC0006A2F11249F5750409AF0F1F088234AF072
:101AD000EE0FFF1FBB1F661F771F881F91505040DE
:101AE000A9F79E3F510580F00C94C80C0C94130D7F
:101AF0005F3FE4F3983ED4F3869577956795B79565
:101B0000F795E7959F5FC1F7FE2B880F911D96957E
:101B1000879597F908950E94A40C880B990B089556
:101B200097FB072E16F4009407D077FD09D00E948A
:101B3000C60D07FC05D03EF4909581959F4F089502
:101B4000709561957F4F0895A1E21A2EAA1BBB1BC9
:101B5000FD010DC0AA1FBB1FEE1FFF1FA217B30779
:101B6000E407F50720F0A21BB30BE40BF50B661F8F
:101B7000771F881F991F1A9469F760957095809553
:101B800090959B01AC01BD01CF010895AA1BBB1B21
:101B900051E107C0AA1FBB1FA617B70710F0A61B6D
:101BA000B70B881F991F5A95A9F780959095BC018E
:101BB000CD010895EE0FFF1F0590F491E02D0994DB
:041BC000F894FFCFC7
:101BC400FFFFFF000080BF000080BF000000006531
:101BD40001C500F200B2012301010115010D0A0043
:101BE4006E616E00696E66006F7666004661696CB0
:101BF400656420746F20726561642066726F6D2065
:101C04004448542053656E736F72004661696C6575
:101C14006420746F20726561642066726F6D204C5D
:101C240044522053656E736F7200526573756C7401
:101C34002066726F6D2073656E736F72733A200045
:101C44004C69676874696E67203A200048756D694D
:101C5400646974793A20002520200054656D70650C
:101C64007261747572653A20002043200046616EEB
:101C7400204E6F7420576F726B696E672C20466913
:101C840078204D697374616B65210046414E204F85
:101C94004E20666F722000207365636F6E6473203C
:101CA4000046414E204F4646204146544552204668
:101CB400414E4E494E472120002054656D70657297
:101CC40061747572652069733A2031382E35204E5F
:101CD4004F57200046414E204F4646202000574192
:101CE400544552204F4646202000576174657220A7
:101CF4004E6F7420576F726B696E672C204669783B
:101D0400204D697374616B6521005741544552201D
:101D14004F4E20666F7220005741544552204F4663
:101D240046204146544552205741544552494E4756
:101D34002120002048756D69646974792069733ABB
:101D440020353025204E4F57004C69676874204E6B
:101D54006F7420576F726B696E672C204669782008
:101D64004D697374616B6521004C49474854204F99
:101D74004E20666F7220004C49474854204F464617
:101D8400204146544552204C49474854494E472126
:101D94002000204C44522069733A20333030204EC6
:101DA4004F57004C49474854204F464620002D2D9C
:101DB4002D2D2D2D2D2D2D2D2D2D2D2D2D2D2D2D4F
:101DC4002D2D2D2D2D2D2D2D2D2D2D2D2D2D2D2D3F
:101DD4002D2D2D2D2D2D2D2D2D2D2D2D2D2D2D2D2F
:101DE4002D2D2D2D2D2D2D2D2D2D2D2D2D2D2D2D1F
:101DF4002D2D2D2D2D2D2D2D2D2D2D2D2D2D2D2D0F
:041E04002D2D000080
:107E0000112484B714BE81FFF0D085E080938100F7
:107E100082E08093C00088E18093C10086E0809377
:107E2000C20080E18093C4008EE0C9D0259A86E02C
:107E300020E33CEF91E0309385002093840096BBD3
:107E4000B09BFECF1D9AA8958150A9F7CC24DD24C4
:107E500088248394B5E0AB2EA1E19A2EF3E0BF2EE7
:107E6000A2D0813461F49FD0082FAFD0023811F036
:107E7000013811F484E001C083E08DD089C08234E0
:107E800011F484E103C0853419F485E0A6D080C0E4
:107E9000853579F488D0E82EFF2485D0082F10E0AE
:107EA000102F00270E291F29000F111F8ED06801E7
:107EB0006FC0863521F484E090D080E0DECF843638
:107EC00009F040C070D06FD0082F6DD080E0C81688
:107ED00080E7D80618F4F601B7BEE895C0E0D1E017
:107EE00062D089930C17E1F7F0E0CF16F0E7DF06D8
:107EF00018F0F601B7BEE89568D007B600FCFDCFD4
:107F0000A601A0E0B1E02C9130E011968C91119780
:107F100090E0982F8827822B932B1296FA010C0160
:107F200087BEE89511244E5F5F4FF1E0A038BF0790
:107F300051F7F601A7BEE89507B600FCFDCF97BE46
:107F4000E89526C08437B1F42ED02DD0F82E2BD052
:107F50003CD0F601EF2C8F010F5F1F4F84911BD097
:107F6000EA94F801C1F70894C11CD11CFA94CF0C13
:107F7000D11C0EC0853739F428D08EE10CD085E9AC
:107F80000AD08FE07ACF813511F488E018D01DD067
:107F900080E101D065CF982F8091C00085FFFCCF94
:107FA0009093C60008958091C00087FFFCCF809118
:107FB000C00084FD01C0A8958091C6000895E0E648
:107FC000F0E098E1908380830895EDDF803219F02E
:107FD00088E0F5DFFFCF84E1DECF1F93182FE3DFCA
:107FE0001150E9F7F2DF1F91089580E0E8DFEE27F6
:047FF000FF270994CA
:027FFE00040479
:0400000300007E007B
:00000001FF
